:100000000C942A000C94C7020C94F0020C9419036F
:100010000C9447000C9447000C9447000C94AA24BD
:100020000C9447000C9447000C948F040C944700E8
:100030000C9447000C9447000C9447000C94470024
:100040000C9447000C9447000C9447000C94470014
:100050000C94470011241FBECFE5D8E0DEBFCDBF12
:1000600011E0A0E6B0E0E2EFF1E502C005900D92EC
:10007000A635B107D9F727E0A6E5B1E001C01D928A
:10008000AE3FB207E1F70E94AD240C94F7280C9420
:1000900000000F931F93CF93DF9300D0CDB7DEB74F
:1000A0000FEF13E0BE016F5F7F4FC8010E941E0576
:1000B00089819A818B9789F40F3F83E0180731F08B
:1000C0000F5F1F4F10935701009356010F900F9031
:1000D000DF91CF911F910F9108950150110911F7F0
:1000E0001092570110925601F1CFCF93DF93EC019C
:1000F00066EE77E081E00E944F034091E607509161
:10010000E70724EF31E0429FC001439F900D529FCB
:10011000900D1124892F99278695869502979983AA
:1001200088838C31910558F041E061E082E00E94C3
:10013000390281E080935D01DF91CF910895459769
:10014000D8F740E061E082E00E94390210925D0140
:10015000F3CF809158018130E1F480915E018111EB
:1001600018C082E890E00E9482072FEF89E698E1AC
:10017000215080409040E1F700C000000E949207AB
:100180002FEF83EC99E0215080409040E1F700C0D0
:100190000000809159018130E1F480915E0181304D
:1001A000C1F48AE890E00E9482072FEF89E698E187
:1001B000215080409040E1F700C000000E9492076B
:1001C0002FEF83EC99E0215080409040E1F700C090
:1001D000000080915A018130E1F480915E0182300B
:1001E000C1F482E990E00E9482072FEF89E698E14E
:1001F000215080409040E1F700C000000E9492072B
:100200002FEF83EC99E0215080409040E1F700C04F
:10021000000080915B018130E1F480915E018330C8
:10022000C1F48AE990E00E9482072FEF89E698E105
:10023000215080409040E1F700C000000E949207EA
:100240002FEF83EC99E0215080409040E1F700C00F
:10025000000080915C018130E1F480915E01843086
:10026000C1F486EA90E00E9482072FEF89E698E1C8
:10027000215080409040E1F700C000000E949207AA
:100280002FEF83EC99E0215080409040E1F700C0CF
:10029000000080915D018130E1F480915E01853044
:1002A000C1F48EEA90E00E9482072FEF89E698E180
:1002B000215080409040E1F700C000000E9492076A
:1002C0002FEF83EC99E0215080409040E1F700C08F
:1002D000000080915E018F5F863018F480935E018C
:1002E000089510925E01089580916000813059F464
:1002F00080916100811104C010925F011092600032
:100300008150809361000895DC015F9B08952CB1BA
:100310002C9390915F01E92FF0E0E851F84F208392
:100320009F5F90935F01F1CF809160019091610197
:10033000880F991F0F968F3F9105E4F49093610108
:1003400080936001809162008130B9F482E00E9464
:10035000EC036091600182E00E94E3032FEF83EDE4
:1003600090E3215080409040E1F700C000001092DF
:10037000620008958FEF90E0E1CF6091600182E02C
:100380000E94E3032FEF83ED90E3215080409040E3
:10039000E1F700C000000895609160017091610173
:1003A000605471097093610160936001161617061D
:1003B0005CF0109261011092600182E00E940504DD
:1003C00081E080936200089582E00E94E3032FEFB2
:1003D00083ED90E3215080409040E1F700C00000A1
:1003E000089560916500709166008091670090911A
:1003F00068000C94E7046091630070916400809140
:100400006700909168000C94E704413091F018F077
:10041000423029F10895E82FF0E0EE0FFF1FE65873
:10042000FF4F0190F081E02D80816095682360830B
:10043000089590E0880F991FFC01E658FF4F019046
:10044000F081E02D3081262F2095232320838E58A4
:100450009F4FDC01ED91FC918081682BE8CFE82F64
:10046000F0E0EE0FFF1FE658FF4F0190F081E02D06
:10047000F3CF442319F0413079F00895E82FF0E0EC
:10048000EE0FFF1FEE58FF4F0190F081E02D8081AD
:100490006095682360830895E82FF0E0EE0FFF1F5A
:1004A000EE58FF4F0190F081E02D8081682BF2CF54
:1004B000E82FF0E0EE0FFF1FEE58FF4F0190F081A4
:1004C000E02D8081682760830895E82FF0E0EE0F2B
:1004D000FF1FE659FF4F0190F081E02D80816823D6
:1004E00019F4FA011082089581E0FA0180830895D9
:1004F000813041F018F0823041F008958BB780646C
:100500008BBF08958BB78068FBCF8BB78062F8CF25
:10051000813041F018F0823041F008958BB78F7B25
:100520008BBF08958BB78F77FBCF8BB78F7DF8CFBD
:10053000813079F018F08230D9F0089585B78C7F3A
:1005400085BF85B7682B65BF5093670140936601EF
:10055000089585B7837F85BF85B794E0699FB00113
:100560001124682B65BF5093650140936401089581
:10057000633041F484B7806484BF50936301409337
:10058000620108956230C9F784B78F7BF5CF1F925F
:100590000F920FB60F9211242F933F934F935F93B7
:1005A0006F937F938F939F93AF93BF93EF93FF933B
:1005B000E0916601F0916701309709F00995FF918C
:1005C000EF91BF91AF919F918F917F916F915F91CB
:1005D0004F913F912F910F900FBE0F901F90189544
:1005E0001F920F920FB60F9211242F933F934F93A8
:1005F0005F936F937F938F939F93AF93BF93EF938B
:10060000FF93E0916401F0916501309709F009953D
:10061000FF91EF91BF91AF919F918F917F916F91DA
:100620005F914F913F912F910F900FBE0F901F90B0
:1006300018951F920F920FB60F9211242F933F938C
:100640004F935F936F937F938F939F93AF93BF93DA
:10065000EF93FF93E0916201F0916301309709F00D
:100660000995FF91EF91BF91AF919F918F917F91EC
:100670006F915F914F913F912F910F900FBE0F900F
:100680001F90189520E4829FC001112420E2629FF0
:10069000B0011124862B87B9406846B9089597B1F7
:1006A000907E97B997B1892B87B9369A349BFECF44
:1006B000349A3D9B06C085B190E0FB019183808315
:1006C000089584B195B1F9CF12BE83B790917501A9
:1006D000892B83BF0895813081F018F0823091F02A
:1006E00008956836710529F4433318F0425360E6E3
:1006F00070E063BF4093750108957FBD6EBD409368
:10070000740108956836710529F4433318F0425393
:1007100060E670E065BD409373010895CF92DF926B
:10072000EF92FF926A017B01811112C08AEF8CBFA8
:100730000E94640381E0C81AD108E108F1088FEF34
:10074000C816D806E806F80641F483B7887F83BF49
:10075000FF90EF90DF90CF90089508B601FEFDCF97
:1007600088B7826088BFE6CF0F938130D9F020F040
:10077000823011F10F9108958AEF8CBF40936E0182
:1007800050936F01609370017093710130936D010C
:1007900020936C010093720189B7826089BF0F9129
:1007A0000C9464031DBC1CBC8EB59FB520917401D4
:1007B000822B9FBD8EBDDECF14BC85B59091730199
:1007C000892B85BDD7CF882319F0823019F0089581
:1007D0006CBF089563BD0895813031F018F0823008
:1007E00069F008950C9464031DBC1CBC8EB59FB5C4
:1007F00020917401822B9FBD8EBD089514BC85B5D8
:1008000090917301892B85BD0895813041F018F0D6
:10081000823059F0089583B7887F83BF08958EB5DD
:100820009FB5887F9FBD8EBD089585B5887F85BDA6
:100830000895AF92BF92CF92DF92EF92FF920F9303
:100840001F93CF93DF9300D000D000D0CDB7DEB799
:100850005C018B01FE01319686E0DF011D928A95D5
:10086000E9F78EB59FB580649FBD8EBD1DBC1CBCD5
:100870008EB59FB520917401822B9FBD8EBD9E01C8
:10088000295F3F4F08B605FEFDCF86B597B581932A
:10089000919388B7806288BF8EB59FB5B0E48B27EF
:1008A0009FBD8EBD2E173F0769F78EB59FB5887F18
:1008B0009FBD8EBD89819A81CD80DE80C81AD90AFC
:1008C000F12CE12C2B813C81281B390BA4E6B0E0F4
:1008D0000E94DF28A70196010E94BD28F501208310
:1008E00060E970ED83E090E0A70196010E94BD28C9
:1008F000D8012D933D934D935C93139726960FB695
:10090000F894DEBF0FBECDBFDF91CF911F910F9145
:10091000FF90EF90DF90CF90BF90AF9008951F921F
:100920000F920FB60F9211242F933F934F935F9323
:100930006F937F938F939F93AF93BF93EF93FF93A7
:100940008091680190916901A0916A01B0916B0159
:100950000196A11DB11D8093680190936901A09338
:100960006A01B0936B0140916E0150916F016091EB
:1009700070017091710184179507A607B707B1F44C
:10098000E0916C01F0916D01309781F00995109222
:1009900068011092690110926A0110926B018091B6
:1009A0007201811103C083B7887F83BFFF91EF91EC
:1009B000BF91AF919F918F917F916F915F914F9177
:1009C0003F912F910F900FBE0F901F9018952EB54D
:1009D0003FB52B6132683FBD2EBD97BD86BD1DBCA6
:1009E0001CBC7BBD6ABD089528E12AB926E820BD5C
:1009F00089B99F7790BD08955D9B04C08CB95E9BBB
:100A0000FECF5E9A08955F9B03C02CB1FC0120834A
:100A10000895615008F408955D9BFBCFFC0120818F
:100A20002CB95E9BFECF5E9A0196F3CFE199FECF83
:100A30009FBB8EBB6DBBE29AE19A0895E199FECF10
:100A40009FBB8EBBE09A8DB390E0FB0191838083C6
:100A5000089520FF709A34E0439FA0011124406460
:100A600090E2699FB0011124462B30E1839FC001C1
:100A70001124482B2695242B2DB908958FB9779BE7
:100A8000FECF8FB1FB018083089590917601911183
:100A900004C08FB991E090937601779B04C09FB119
:100AA000FB0190838FB9089588E480B911B884E080
:100AB00086BF089594EA96BF91B1987F983021F04F
:100AC00091B1987F9031C1F7880F682B63B984E8A2
:100AD00086BF06B607FEFDCF089584E986BF06B639
:100AE00004FCFDCF089583B984E886BF06B607FEEF
:100AF000FDCF089524EC26BF06B607FEFDCF23B137
:100B0000FC012083089524E826BF06B607FEFDCF2A
:100B100023B1FC0120830895813049F018F0823020
:100B200049F0089542E064E082E00C94050242E05E
:100B300060E8FACF42E068E083E0F7CF813049F027
:100B400018F0823049F0089541E064E082E00C94AE
:100B5000390241E060E8FACF41E068E083E0F7CF96
:100B6000813049F018F0823049F0089540E064E0A7
:100B700082E00C94390240E060E8FACF40E068E09F
:100B800083E0F7CF813041F018F0823039F00895DA
:100B900064E082E00C94580260E8FBCF68E083E0F8
:100BA000F9CF813049F018F0823051F0089540E0DB
:100BB00061E081E00C94050240E060E483E0FACF5C
:100BC00040E064E0FBCFAB01813041F018F08230AF
:100BD00041F0089561E081E00C94650260E483E0F7
:100BE000FBCF64E0FCCFCF93C82F42E060E180E010
:100BF0000E94050242E060E280E00E94050242E0BD
:100C000060E480E00E94050242E060E880E00E942B
:100C10000502CC2321F0C13041F0CF91089542E08C
:100C200064E081E0CF910C94050242E062E0F9CFEC
:100C3000882319F0813031F0089541E064E081E0CB
:100C40000C94390241E062E0FACF882319F0813038
:100C500031F0089540E064E081E00C94390240E016
:100C600062E0FACFCF938A30F0F4C82F482F41705A
:100C700060E180E00E943902C1FB442740F960E254
:100C800080E00E943902C2FB442740F960E480E022
:100C90000E9439024C2F46954695469560E880E0C3
:100CA000CF910C943902CF910895CF93C82F40E093
:100CB00062E081E00E94390240E064E081E00E944D
:100CC0003902C4FB442740F960E180E00E94390208
:100CD000C5FB442740F960E280E00E943902C6FB70
:100CE000442740F960E480E00E9439024C2F441F01
:100CF0004427441F60E880E00E94390240E068E039
:100D000081E00E94390287EC90E00197F1F700C082
:100D1000000041E068E081E00E9439024C2F417000
:100D200060E180E00E943902C1FB442740F960E2A3
:100D300080E00E943902C2FB442740F960E480E071
:100D40000E943902C3FB442740F960E880E00E941A
:100D5000390240E068E081E00E94390287EC90E0CF
:100D60000197F1F700C0000041E068E081E0CF9119
:100D70000C943902CF93C82F41E062E081E00E94D9
:100D8000390240E064E081E00E943902C4FB44275C
:100D900040F960E180E00E943902C5FB442740F938
:100DA00060E280E00E943902C6FB442740F960E41B
:100DB00080E00E9439024C2F441F4427441F60E802
:100DC00080E00E94390240E068E081E00E94390240
:100DD00087EC90E00197F1F700C0000041E068E087
:100DE00081E00E9439024C2F417060E180E00E9456
:100DF0003902C1FB442740F960E280E00E943902D9
:100E0000C2FB442740F960E480E00E943902C3FB42
:100E1000442740F960E880E00E94390240E068E041
:100E200081E00E94390287EC90E00197F1F700C061
:100E3000000041E068E081E0CF910C94390242E08B
:100E40006EE081E00E94050242E060EF80E00E94D7
:100E5000050241E068E081E00E9439022FEF80E75F
:100E600092E0215080409040E1F700C0000040E057
:100E700060E180E00E94390241E060E280E00E948F
:100E8000390240E060E480E00E94390240E060E81E
:100E900080E00E94390240E068E081E00E9439026F
:100EA00087EC90E00197F1F700C0000041E068E0B6
:100EB00081E00E9439028CE20E9455068FE99FE092
:100EC0000197F1F700C000008FE00E9455068FE9FE
:100ED0009FE00197F1F700C0000081E00E945506F5
:100EE0008FE39FE10197F1F700C0000086E00E94C8
:100EF00055068FE99FE00197F1F700C000000895C3
:100F00000C94BA06CF93DF93EC018991811103C051
:100F1000DF91CF9108950E94BA06F7CF6068862BC3
:100F20000C94550640E062E081E00E94390240E006
:100F300064E081E00E94390240E060E180E00E94CC
:100F4000390240E060E280E00E94390240E060E463
:100F500080E00E94390240E060E880E00E943902AF
:100F600040E068E081E00E94390287EC90E0019760
:100F7000F1F700C0000041E068E081E00E94390222
:100F800041E060E180E00E94390240E060E280E000
:100F90000E94390240E060E480E00E94390240E0B3
:100FA00060E880E00E94390240E068E081E00E9451
:100FB000390287EC90E00197F1F700C0000041E0B2
:100FC00068E081E00C94390241E061E080E00E9439
:100FD000050241E060E181E00E94050241E060E13C
:100FE00083E00E94050241E068E082E00E94050281
:100FF00042E060E782E00E94050242E060E881E0B2
:101000000E94050241E060E782E00E94390241E06F
:1010100060E881E00C9439020F931F93CF93DF9324
:101020001F92CDB7DEB78C01FC01108240E060E179
:1010300082E00E943902AE014F5F5F4F61E080E0C5
:101040000E9465028981811117C0FFEF26E781E0C8
:10105000F15020408040E1F700C0000081E3F8013A
:10106000808341E060E182E00E9439020F90DF91CD
:10107000CF911F910F910895AE014F5F5F4F60E1D7
:1010800081E00E946502898181110BC0FFEF26E794
:1010900081E0F15020408040E1F700C0000084E38F
:1010A000DECFAE014F5F5F4F60E183E00E946502DB
:1010B000898181110BC0FFEF26E781E0F1502040CC
:1010C0008040E1F700C0000087E3C9CFAE014F5F69
:1010D0005F4F68E082E00E946502898181110BC048
:1010E000FFEF26E781E0F15020408040E1F700C0AB
:1010F000000082E5B4CF41E060E182E00E94390265
:1011000040E060E282E00E943902AE014F5F5F4F33
:1011100061E080E00E946502898181110FC0FFEFCC
:1011200026E781E0F15020408040E1F700C0000058
:1011300082E3F801808341E060E295CFAE014F5F2A
:101140005F4F60E181E00E946502898181110BC0DF
:10115000FFEF26E781E0F15020408040E1F700C03A
:10116000000085E3E6CFAE014F5F5F4F60E183E0B3
:101170000E946502898181110BC0FFEF26E781E0A3
:10118000F15020408040E1F700C0000088E3D1CF5B
:10119000AE014F5F5F4F68E082E00E946502898187
:1011A00081110BC0FFEF26E781E0F1502040804025
:1011B000E1F700C0000080E3BCCF41E060E282E0E4
:1011C0000E94390240E060E482E00E943902AE01F0
:1011D0004F5F5F4F61E080E00E946502898181116D
:1011E0000FC0FFEF26E781E0F15020408040E1F79B
:1011F00000C0000083E3F801808341E060E433CF66
:10120000AE014F5F5F4F60E181E00E94650289811E
:1012100081110BC0FFEF26E781E0F15020408040B4
:10122000E1F700C0000086E3E6CFAE014F5F5F4FFD
:1012300060E183E00E946502898181110BC0FFEFAC
:1012400026E781E0F15020408040E1F700C0000037
:1012500089E3D1CFAE014F5F5F4F68E082E00E942B
:101260006502898181110BC0FFEF26E781E0F15013
:1012700020408040E1F700C0000085E4BCCF41E0A1
:1012800060E482E00E94390240E060E881E00E9470
:101290003902AE014F5F5F4F61E080E00E9465025E
:1012A0008981811110C0FFEF26E781E0F1502040D5
:1012B0008040E1F700C0000081E4F801808341E054
:1012C00060E881E0D1CEAE014F5F5F4F60E181E029
:1012D0000E946502898181110BC0FFEF26E781E042
:1012E000F15020408040E1F700C0000082E4E5CFEB
:1012F000AE014F5F5F4F60E183E00E94650289812C
:1013000081110BC0FFEF26E781E0F15020408040C3
:10131000E1F700C0000083E4D0CFAE014F5F5F4F24
:1013200068E082E00E94650289818111C8CFFFEFE9
:1013300026E781E0F15020408040E1F700C0000046
:1013400084E4BBCFFB01813319F481E080830895ED
:10135000823311F482E0FACF833311F483E0F6CFC5
:10136000843311F484E0F2CF853311F485E0EECFBD
:10137000863311F486E0EACF873311F487E0E6CFB5
:10138000883311F488E0E2CF893311F489E0DECFAD
:10139000803309F4108208950C945405CF93DF93A1
:1013A000D62FC42F60E080650E945A058FE39CE928
:1013B0000197F1F700C000008D2F0E9473058FE3A5
:1013C0009CE90197F1F700C000008C2F0E94730583
:1013D0008FE39CE90197F1F700C00000DF91CF9106
:1013E0000C946D050F931F93CF93DF93D62F8A0133
:1013F000C22F213108F0C0E160E080650E945A05EB
:101400008FE39CE90197F1F700C000008D2F0E9447
:101410007305EFE3FCE93197F1F700C00000C1501C
:1014200060F48FE39CE90197F1F700C00000DF91C1
:10143000CF911F910F910C946D05F80181918F014F
:101440000E947305ECCF0F931F93CF93DF93D62F9A
:101450008A01C82FC06560E08C2F0E945A058D2F2D
:101460000E9473058FE39CE90197F1F700C000002B
:1014700061E08C2F0E945A05C8010E9483058FE30A
:101480009CE90197F1F700C00000DF91CF911F9117
:101490000F910C946D05EF92FF920F931F93CF93D2
:1014A000DF93162F7A01D82FD065CFEFC20F60E0FF
:1014B0008D2F0E945A05812F0E9473058FE39CE9AE
:1014C0000197F1F700C0000061E08D2F0E945A05DE
:1014D000DC2F8701D15098F4C7018C0F911D0E9419
:1014E00083058FE39CE90197F1F700C00000DF91CD
:1014F000CF911F910F91FF90EF900C946D05C80153
:101500000E947A050F5F1F4FE5CF88E090E09FBDF6
:101510008EBD1BBC1ABC1DBC1CBC08952AEF269FA7
:10152000A001279F500D11245BBD4ABD89B7806182
:1015300089BF8EB59FB583609FBD8EBD0895809194
:101540007B01833018F48F5F80937B010895CF93E4
:10155000DF938FE090E00E94E90CEC01009741F0EE
:10156000FC011192119211921192CF010E94300D43
:10157000CE01DF91CF9108952F923F924F925F92CB
:101580006F927F928F929F92AF92BF92CF92DF9293
:10159000EF92FF920F931F93CF93DF93EC014A01D9
:1015A0005B01622E702E0E94BB19288039804A8010
:1015B0005B80D201C10188219921AA21BB2101119F
:1015C0005DC0892B8A2B8B2B09F05EC0C114D1041E
:1015D000E104F104C1F040E050E0BA01662021F0DE
:1015E00040E050E060E071E07110746048295929D2
:1015F0006A297B2997018601CE0104960E942E1D3F
:10160000212C312C21010E94091BCD28CE28CF2866
:1016100001F1811102C00E94F5230E94281F91FD53
:1016200015C00FB6F8940F92688179818A819B81E9
:1016300075016401C622D722E822F922711038C050
:10164000CD28CE28CF28C9F50F900FBE1B012C0145
:101650005524C201B101DF91CF911F910F91FF90ED
:10166000EF90DF90CF90BF90AF909F908F907F9042
:101670006F905F904F903F902F9008958816990635
:10168000AA06BB0609F0A2CF662071F0D501C401FD
:1016900080959095A095B09582219321A421B521A4
:1016A00088839983AA83BB83C12CD12C7601ABCFCD
:1016B0008C149D04AE04BF0439F6662029F2809490
:1016C0009094A094B09486229722A822B92288826E
:1016D0009982AA82BB82B8CF0F931F930FB6F8945A
:1016E0000F92FC0100811181228133814095509538
:1016F0006095709540235123622373234083518367
:10170000628373830F900FBEC901B8011F910F91BF
:101710000895FC01608171818281938108952F92E7
:101720003F924F925F926F927F928F929F92AF9271
:10173000BF92CF92DF92EF92FF920F931F93CF93BE
:10174000DF93EC016A017B018C01095F1F4F0E944E
:10175000BB19EB85FC85488159816A817B814C29C5
:101760005D296E297F29488359836A837B83C12C35
:10177000D12C7601488159816A817B81E017F1077C
:1017800029F5C094D094E094F0944C215D216E2111
:101790007F21488359836A837B830E94091B688168
:1017A00079818A819B81DF91CF911F910F91FF9069
:1017B000EF90DF90CF90BF90AF909F908F907F90F1
:1017C0006F905F904F903F902F90089534802580C8
:1017D00080809180A280B380D501C401BB272C01F9
:1017E0003D014422552266227722B2FC07C04528DB
:1017F0004628472841F4E32DF22DBCCF84159505EA
:10180000A605B705C1F7B0FE04C0C82AD92AEA2A3E
:10181000FB2A7260CF010E941D1EEDCF4F925F9296
:101820006F927F928F929F92AF92BF92CF92DF92F0
:10183000EF92FF920F931F93CF93DF9300D000D0CE
:1018400000D0CDB7DEB79E838D832A013B014801CE
:1018500059010E94BB19AD81BE818D919D910D9062
:10186000BC91A02D89839A83AB83BC83B301A20171
:101870008D819E810E948F0B89819A81AB81BC8171
:10188000482A592A6A2A7B2AD301C2018023992136
:10189000AA21BB2188159905AA05BB0509F063C0DB
:1018A000ED81FE8180819181A281B381B501A80182
:1018B000409550956095709584239523A623B72372
:1018C00080839183A283B383C12CD12C76010E94A3
:1018D000091BCD28CE28CF2869F1811102C00E94B2
:1018E000F5230E94281F91FD22C00FB6F8940F9295
:1018F000ED81FE8160817181828193817501640136
:10190000C622D722E822F922C814D904EA04FB042B
:1019100061F480949094A094B09486229722A82297
:10192000B92280829182A282B3820F900FBE2B01D6
:101930003C017724C301B20126960FB6F894DEBFAE
:101940000FBECDBFDF91CF911F910F91FF90EF9010
:10195000DF90CF90BF90AF909F908F907F906F90CF
:101960005F904F900895C114D104E104F10471F027
:1019700097018601B501A40175608D819E81049651
:101980000E942E1D412C512C3201A1CFAD81BE8170
:101990004D905D906D907C909ACFCF93DF93EC014A
:1019A0000E94BB198C81811107C0CE010E94210DBC
:1019B000DF91CF910C94091B40E050E060E072E0B1
:1019C0008B859C850E941D1EEDCF0C948F0B0C9473
:1019D0006C0B0F931F93CF93DF938C010E94BB1965
:1019E00080917C0190917D01892B31F480E891E018
:1019F00090937D0180937C0101151105F9F02091F0
:101A00007E0130917F01020F131F0B3D85E0180707
:101A1000A8F42017310790F4C0917C01D0917D018A
:101A2000C20FD31F10937F0100937E010E94091BF8
:101A3000CE01DF91CF911F910F910895D0E0C0E0CA
:101A4000F5CF089510927F0110927E0108952091A4
:101A50007E0130917F018BED95E0821B930B089501
:101A6000FC010396928381834FEF5FEFBA014383BA
:101A700054836583768390878783928781871082DA
:101A80000895FC01138612860895CF93DF939C017D
:101A9000FB01DC011196CD91DC91D583C4838E814D
:101AA0009F81978386838E819F81DC0115967C932D
:101AB0006E9314977F836E8333872287F901808129
:101AC0008F5F8083DF91CF910895EF92FF920F9304
:101AD0001F93CF93DF937C01FB0140815181628191
:101AE0007381DC0113964F3F8FEF58076807780723
:101AF00001F5E701A985BA8514968D919C911597FA
:101B000095838483EC01FF83EE83B783A6831596C8
:101B1000FC93EE931497F386E286F70180818F5F42
:101B20008083DF91CF911F910F91FF90EF900895E7
:101B3000DC0114968D919C911597EC010881198117
:101B40002A813B81401751076207730788F7D4CF7A
:101B5000CF93DF93FC01A285B38584819581268193
:101B60003781EC013F832E83C681D7819D838C838F
:101B700011968D919C9112978E179F0721F41296C2
:101B8000DC93CE931197138612868C9181508C939F
:101B90008C91DF91CF9108950FB6F8940F92FC01CC
:101BA000968D0F900FBE81E0911180E008950F9304
:101BB0001F93CF93DF93EC01042F1E8D48A1442384
:101BC000C1F050E001111DC08A819B810E94EE2866
:101BD00088A12A813B81820F932F911D9B838A8349
:101BE0002C813D818217930720F0888199819B8306
:101BF0008A831F5F1E8F80E0DF91CF911F910F912D
:101C000008958E819F810E94EE2888A190E0919591
:101C1000819591092E813F81280F391F3F832E83A3
:101C2000488159812417350730F42C813D81820F7A
:101C3000931F9F838E830230E1F61123D1F211505E
:101C4000D8CFFC01CB0140A14423A1F050E0268174
:101C50003781240F351F37832683648175812617CA
:101C6000370720F020813181378326836681778191
:101C70000C94EE280895EF92FF921F93CF93DF9379
:101C8000EC010FB6F8940F921AA17C0183E1E80EE3
:101C9000F11C1116C4F08FEF8AA30F900FBE0FB680
:101CA000F8940F9219A17E0188E0E80EF11C11163C
:101CB000ACF08FEF89A30F900FBEDF91CF911F91F2
:101CC000FF90EF9008958B89882329F3C7010E9424
:101CD000781D81110E941F1F1150DBCF888588233A
:101CE00041F3C7010E94781D81110E941F1F1150EE
:101CF000DECFCF93DF93009709F43FC0FC01278D1F
:101D0000222309F43AC0EC0140A10FB6F8940F92D7
:101D100080819181FC01249FE00DF11D1124FD8340
:101D2000EC831E8E9B838A832150330B429FF001EC
:101D3000439FF00D11248E0F9F1F9F838E838FEF83
:101D400089A38AA3611110C08885882339F0CE0148
:101D500008960E94781D81110E94F5230F900FBEF6
:101D600081E0DF91CF910895CE0108960E94300D59
:101D7000CE0143960E94300DF1CF80E0F2CF0F9359
:101D80001F93CF93DF93811108C0D0E0C0E0CE0154
:101D9000DF91CF911F910F910895162F082F869FE5
:101DA000C001112483960E94E90CEC01009769F3AD
:101DB000111109C0998388830F8F18A361E0CE01A8
:101DC0000E94790EE4CF839699838883F5CFAF92F2
:101DD000BF92CF92DF92EF92FF920F93CF93DF9358
:101DE000CDB7DEB729970FB6F894DEBF0FBECDBFD3
:101DF0007C016B012E833F834887598780E0570120
:101E000098E0A90EB11C0FB6F8940F92F701268D39
:101E1000978D291710F0023019F5402FB601C70130
:101E20000E94D70DF7019389992321F0C7014396AA
:101E30000E94781D81110E94F5230F900FBE81E052
:101E400029960FB6F894DEBF0FBECDBFDF91CF91BC
:101E50000F91FF90EF90DF90CF90BF90AF900895DB
:101E60004E815F8168857985452B462B472B21F470
:101E70000F900FBE80E0E4CF811104C0CE01019627
:101E80000E94BC1E0F900FBE0E94BB190FB6F894A3
:101E90000F92F70181A18F3F09F411A2F70182A1EE
:101EA0008F3F09F412A20F900FBEBE016A5F7F4FF1
:101EB000CE0101960E94CD1E811122C00FB6F8946A
:101EC0000F92F701968D0F900FBE878D981312C059
:101ED0004E815F8168857985C5010E94171DC70104
:101EE0000E943B0E0E94091B811102C00E94F52333
:101EF00081E089CFC7010E943B0E0E94091BF8CFE9
:101F0000C7010E943B0E0E94091BB4CFEF92FF92C3
:101F10001F93CF93DF93EC019E8D8F8D981718F050
:101F200080E02230D1F47A011AA18E8D422FCE01A9
:101F30000E94D70D1F3FB9F48B89811102C081E047
:101F40000CC0CE0143960E94781D8823C1F3E11492
:101F5000F104A9F381E0F7018083DF91CF911F9114
:101F6000FF90EF9008951F5F1AA3E9CFCF93DF93FF
:101F7000FC01968D878D9817D8F482A19F5F968F6C
:101F80008F3F99F48389811102C081E00BC0EB017E
:101F9000CF0143960E94781D8823B9F32097A9F3B7
:101FA00081E08883DF91CF9108958F5F82A3EDCF89
:101FB00080E0F8CFAF92BF92CF92DF92FF920F9363
:101FC0001F93CF93DF93CDB7DEB729970FB6F89461
:101FD000DEBF0FBECDBF8C016B012E833F834887D0
:101FE000598780E0580193E1A90EB11C0FB6F8940F
:101FF0000F92F801F68CFF2021F1B601C8010E9472
:10200000210EFA94F801F68E8085882339F0C801F4
:1020100008960E94781D81110E94F5230F900FBE33
:1020200081E029960FB6F894DEBF0FBECDBFDF91D9
:10203000CF911F910F91FF90DF90CF90BF90AF9005
:1020400008954E815F8168857985452B462B472B06
:1020500021F40F900FBE80E0E4CF811104C0CE01C7
:1020600001960E94BC1E0F900FBE0E94BB190FB6B6
:10207000F8940F92F80181A18F3F09F411A2F801A1
:1020800082A18F3F09F412A20F900FBEBE016A5FBA
:102090007F4FCE0101960E94CD1E81111DC0C80147
:1020A0000E94CC0D882391F04E815F8168857985EF
:1020B000C5010E94171DC8010E943B0E0E94091B0A
:1020C000811102C00E94F52381E090CFC8010E94D7
:1020D0003B0E0E94091BF8CFC8010E943B0E0E94D4
:1020E000091BC8010E94CC0D882371F3B4CFEF9275
:1020F000FF920F931F93CF93DF93CDB7DEB729974E
:102100000FB6F894DEBF0FBECDBF8C014E835F8348
:102110006887798790E0780183E1E80EF11C0FB6BB
:10212000F8940F92F801868D8823E1F08150868F14
:102130008085882339F0C80108960E94781D811196
:102140000E94F5230F900FBE81E029960FB6F894F8
:10215000DEBF0FBECDBFDF91CF911F910F91FF90DA
:10216000EF9008954E815F8168857985452B462BD8
:10217000472B21F40F900FBE80E0E7CF911104C0F0
:10218000CE0101960E94BC1E0F900FBE0E94BB198B
:102190000FB6F8940F92F80181A18F3F09F411A2B4
:1021A000F80182A18F3F09F412A20F900FBEBE0169
:1021B0006A5F7F4FCE0101960E94CD1E81111DC026
:1021C000C8010E94CC0D882391F04E815F81688503
:1021D0007985C7010E94171DC8010E943B0E0E940D
:1021E000091B811102C00E94F52391E098CFC8011C
:1021F0000E943B0E0E94091BF8CFC8010E943B0EB3
:102200000E94091BC8010E94CC0D882371F3B4CF32
:10221000CF92DF92EF92FF920F931F93CF93DF93B2
:10222000CDB7DEB729970FB6F894DEBF0FBECDBF8E
:102230008C017B012E833F834887598780E06801AA
:1022400093E1C90ED11C0FB6F8940F92F801968D48
:10225000992329F1C680D780B701C8010E94210EB9
:10226000F801D782C6828389882339F0C801439652
:102270000E94781D81110E94F5230F900FBE81E00E
:1022800029960FB6F894DEBF0FBECDBFDF91CF9178
:102290001F910F91FF90EF90DF90CF9008954E81A6
:1022A0005F8168857985452B462B472B21F40F905C
:1022B0000FBE80E0E5CF811104C0CE0101960E94DF
:1022C000BC1E0F900FBE0E94BB190FB6F8940F9260
:1022D000F80181A18F3F09F411A2F80182A18F3F7B
:1022E00009F412A20F900FBEBE016A5F7F4FCE01AC
:1022F00001960E94CD1E81111DC0C8010E94CC0D07
:10230000882391F04E815F8168857985C6010E949E
:10231000171DC8010E943B0E0E94091B811102C0BB
:102320000E94F52381E08FCFC8010E943B0E0E94DE
:10233000091BF8CFC8010E943B0E0E94091BC8016F
:102340000E94CC0D882371F3B4CFEF92FF920F93CC
:102350001F93CF93DF93FC01068D002321F17A01B7
:10236000EC0111A10E94210E01500E8F1F3FC1F4FC
:102370008885811102C081E00CC0CE0108960E94C0
:10238000781D8823C1F3E114F104A9F381E0F7017A
:102390008083DF91CF911F910F91FF90EF9008956F
:1023A0001F5F19A3E8CF80E0F4CF0F931F93CF9363
:1023B000DF93FC01268D222369F0EC010681178151
:1023C0000E94210E1F830E8381E0DF91CF911F9128
:1023D0000F91089580E0F9CF0FB6F8940F92FC01A9
:1023E000868D0F900FBE08950FB6F8940F92FC01E2
:1023F000268D0F900FBE878D821B0895FC01868D60
:1024000008950C94210DFC01968D81E0911180E0DE
:102410000895FC01968D81E0278D291380E00895B1
:10242000FC014481558122813381240F351F808135
:102430009181B901681B790BCB016417750710F006
:10244000841B950B0895AF92BF92CF92DF92EF92CB
:10245000FF920F931F93CF93DF936C015B017A017F
:10246000E901FC0104811581021B130B4017510780
:1024700008F48A01F60184859585A801B5018C0FC1
:102480009D1F0E94EE280E151F0558F4A701401B42
:10249000510BB501600F711FF601848595850E946F
:1024A000EE28CE018E0D9F1DF60124813581821705
:1024B000930710F0821B930BDF91CF911F910F9127
:1024C000FF90EF90DF90CF90BF90AF900895CF92A4
:1024D000DF92EF92FF920F931F93CF93DF9300D081
:1024E000CDB7DEB77C016B015A834983FC01828141
:1024F0009381468540FF29C02017310718F19C01C0
:1025000042E050E0BE016F5F7F4FC7010E9423127F
:1025100049815A814115510541F09C01B601C7011D
:102520000E942312F7019383828389819A810F90FD
:102530000F90DF91CF911F910F91FF90EF90DF905F
:10254000CF9008951A821982E3CF49815A812417C6
:10255000350708F4A9015A834983DACFAF92BF92B5
:10256000CF92DF92EF92FF920F931F93CF93DF935F
:102570006C015B017A01E901FC0104811581021BF8
:10258000130B4017510708F48A01F601648575851D
:102590006C0F7D1FA801C5010E94EE280E151F05B6
:1025A00058F4A701401B510BF60164857585C501E0
:1025B000800F911F0E94EE28CE018E0D9F1DF60107
:1025C000248135818217930710F0821B930BDF91D2
:1025D000CF911F910F91FF90EF90DF90CF90BF9020
:1025E000AF900895AF92BF92CF92DF92EF92FF9299
:1025F0000F931F93CF93DF9300D0CDB7DEB77C014D
:102600005B016A018901FC0120813181868580FF9F
:1026100012C042E050E0BE016F5F7F4FC7010E94D1
:10262000AE129C0189819A8102501109C816D906FF
:10263000F8F4D12CC12CC016D10608F4860101157E
:10264000110541F0A801B501C7010E94AE12F701C2
:1026500091838083C8010F900F90DF91CF911F91DC
:102660000F91FF90EF90DF90CF90BF90AF900895C3
:102670006C01E1CFFF920F931F93CF93DF93EC0197
:102680008B01F42E672B11F401E010E0F0E0E0E0A4
:10269000C03F8FEFD807C8F4CE0140960E94E90CE6
:1026A000FC01892B91F08DE0DF011D928A95E9F7FD
:1026B000CF010F96958784872196D583C48317838E
:1026C000068381E0F81280E08687CF01DF91CF9109
:1026D0001F910F91FF900895FC01268521FF0C9416
:1026E000210D2FE011922A95E9F70895FC010FB60C
:1026F000F8940F9280859185892BC9F48285938502
:10270000892BA9F48681978124813581448555855B
:102710006DE0DF011D926A95E9F75587448735839F
:1027200024839783868381E00F900FBE089580E015
:10273000FBCF6115710511F461E070E0FC012481AB
:1027400035816217730720F47783668381E00895EB
:1027500080E00895FC012481358180819181608130
:10276000718142815381A081B181A817B907A9F76E
:10277000C9010197860F971F841B950B821793073A
:1027800010F0821B930B08950C9410122F923F921D
:102790004F925F926F927F928F929F92AF92BF9271
:1027A000CF92DF92EF92FF920F931F93CF93DF931D
:1027B000CDB7DEB72B970FB6F894DEBF0FBECDBFF7
:1027C0004C017B876A871A010E831F83288739870C
:1027D000FC0184819581019726853A0120FF5DC027
:1027E000F2E06F0E711C8615970520F41E821F8281
:1027F000188619868E819F81A885B985892B8A2B99
:102800008B2B09F050C0C4010E94AA132C01830134
:102810009201A1016A857B85C4010E9467123C0177
:10282000892B09F1C4010E941012F401268137811D
:1028300082179307C0F00E94BB19F401808591852F
:10284000892B79F080859185F12CE12C10E000E056
:1028500020E030E0A90160E00E946E20F4011186C2
:1028600010860E94091BC3012B960FB6F894DEBF99
:102870000FBECDBFDF91CF911F910F91FF90EF90D1
:10288000DF90CF90BF90AF909F908F907F906F9090
:102890005F904F903F902F9008958417950708F010
:1028A000A9CF3C01A7CFCE0101960E94A61E0FB66C
:1028B000F8940F92C4010E94AA132C018615970563
:1028C00060F560E090E080E00E940F230E94231FEB
:1028D000F401938782870F900FBEAE80BF80C884BB
:1028E000D984F12CE12C00E010E0980140E050E0A8
:1028F000BA0180E00E94C61FF40113861286BE0151
:102900006A5F7F4FCE0101960E94CD1E882379F227
:102910004114510409F477CF7ACF0F900FBEF8CF4E
:10292000AF92BF92CF92DF92EF92FF920F931F93DD
:10293000CF93DF93EC015B017A0169018E858A01F7
:1029400080FF02C00E5F1F4FCE010E94AA139C01A0
:10295000A701B501CE010E9467125C01892BD1F05D
:10296000CE010E9410122E813F818217930790F0B2
:1029700088859985892B71F088859985F12CE12CC2
:1029800010E000E020E030E0A90160E00E94552165
:1029900019861886C501DF91CF911F910F91FF9085
:1029A000EF90DF90CF90BF90AF9008954F925F92DD
:1029B0006F927F928F929F92AF92BF92CF92DF924F
:1029C000EF92FF920F931F93CF93DF93EC012B01B4
:1029D0003A01580169018E85912C812C80FF03C03A
:1029E00082E0882E912CA114B104C104D10429F1F4
:1029F0000FB6F8940F92CE010E9410128C01881627
:102A0000990648F060E090E080E00E940F230E9469
:102A1000231F998788870F900FBE8016910640F17B
:102A2000F12CE12C00E010E0980140E050E0BA0108
:102A300080E00E94C61F19861886CE010E941012DF
:102A40008C0188169906A0F0D12CC12CC601DF910B
:102A5000CF911F910F91FF90EF90DF90CF90BF909B
:102A6000AF909F908F907F906F905F904F90089560
:102A70009801A301B201CE010E94F2126C01892BD0
:102A800019F30E94BB198A859B85892B71F08A8571
:102A90009B85F12CE12C10E000E020E030E0A90162
:102AA00060E00E946E201B861A860E94091BCECF12
:102AB0000F931F93CF93DF9300D0CDB7DEB7FC0108
:102AC000268520FD09C090E080E00F900F90DF91F7
:102AD000CF911F910F9108958C010E9410120397BE
:102AE00090F3F8012081318142E050E0BE016F5F38
:102AF0007F4FC8010E94AE1289819A81E6CFAF92C2
:102B0000BF92CF92DF92EF92FF920F931F93CF93DA
:102B1000DF93EC015B017A0169018E8510E000E032
:102B200080FF02C002E010E0CE010E9410120817E0
:102B3000190770F0B12CA12CC501DF91CF911F9125
:102B40000F91FF90EF90DF90CF90BF90AF900895DE
:102B50009C01A701B501CE010E94F2125C01892BF4
:102B600049F38A859B85892B39F38A859B85F12CCE
:102B7000E12C10E000E020E030E0A90160E00E94DC
:102B800055211B861A86D8CFFC01208131814281D4
:102B9000538181E04217530709F080E00895CF93F5
:102BA000DF93FC012685D0E0C0E020FF02C0C2E038
:102BB000D0E00E94AA1321E0C817D90708F420E04A
:102BC000822FDF91CF910895CF92DF92EF92FF9203
:102BD0000F931F93CF93DF93FC0120853185232B27
:102BE000D1F06B01EC0180859185F12CE12C10E096
:102BF00000E020E030E0A90160E00E945521198644
:102C0000188681E0DF91CF911F910F91FF90EF9097
:102C1000DF90CF90089580E0F5CFCF92DF92EF92D2
:102C2000FF920F931F93CF93DF93FC01228533858F
:102C3000232BD1F06B01EC0182859385F12CE12CE3
:102C400010E000E020E030E0A90160E00E945521A2
:102C50001B861A8681E0DF91CF911F910F91FF9023
:102C6000EF90DF90CF90089580E0F5CFE091970747
:102C7000F0919807808181110CC08FEF9FEFDC01EC
:102C80008093610790936207A0936307B0936407F2
:102C90000895E0919707F09198070780F085E02D5F
:102CA00080819181A281B381EBCF8F929F92AF926D
:102CB000BF92CF92DF92EF92FF92CF936B017C0194
:102CC000C42F80906E0790906F07A0907007B0900F
:102CD000710780915C0790915D0702960E94A80D94
:102CE0008FEFC816D806E806F80609F042C0CC23D4
:102CF00009F43FC0E0917407F0917507A0915C075B
:102D0000B0915D071796FC93EE931697A0915C0720
:102D1000B0915D078681978119969C938E93189741
:102D200080915C0790915D07A681B7810296159608
:102D30009C938E93149780915C0790915D07029607
:102D400097838683E0915C07F0915D0783E797E0C6
:102D500095878487809173078F5F80937307CF91E6
:102D6000FF90EF90DF90CF90BF90AF909F908F90AB
:102D70000895C80CD91CEA1CFB1CE0915C07F0917B
:102D80005D07C282D382E482F58260915C07709114
:102D90005D07C814D904EA04FB0488F48091950700
:102DA000909196076E5F7F4FCF91FF90EF90DF90ED
:102DB000CF90BF90AF909F908F900C94650D8091B5
:102DC0009707909198076E5F7F4F0E94650D8091E5
:102DD000610790916207A0916307B0916407C816DC
:102DE000D906EA06FB0608F0BACFC0926107D09276
:102DF0006207E0926307F0926407B1CF80917E078B
:102E0000811107C08091AF078230C0F30E94F52383
:102E1000F5CF0FB6F8940F92E0918607F0918707EF
:102E2000C085D185CE0102960E94A80D80917207BF
:102E300081508093720780917E07815080937E0736
:102E40000F900FBE8B8D9C8D0E94210DCE010E9494
:102E5000210DD4CF4F925F926F927F928F929F926B
:102E6000AF92BF92CF92DF92EF92FF920F93CF93E8
:102E7000DF934C016B015A012901CA010E94E90C40
:102E80003C01892BB1F08AE290E00E94E90CEC0150
:102E9000892B61F07C8E6B8E81E0A81AB108A60C9C
:102EA000B71CC114D104B1F41D8E29C0C3010E9406
:102EB000210D8FEFDF91CF910F91FF90EF90DF9079
:102EC000CF90BF90AF909F908F907F906F905F90CA
:102ED0004F900895F601AE01435E5F4FC60108961C
:102EE0002191DA012D93AD019F0121503109D901C2
:102EF0002C91222319F0E817F90791F71CA205304D
:102F000008F004E00A8F6E01B2E0CB0ED11CC601BE
:102F10000E94410DCE010E960E94410DDB87CA87AB
:102F200085E090E0A0E0B0E0801B9109A109B10923
:102F30008E879F87A88BB98BDF8BCE8B84E0FE01B9
:102F4000B596DF011D928A95E9F719A6A201B40191
:102F5000C5010E94532399838883E114F10419F079
:102F6000F701D183C0830FB6F8940F928091720756
:102F70008F5F8093720780915C0790915D07892B2A
:102F800009F081C0D0935D07C0935C078091720700
:102F90008130A1F58FEA97E00E94300D8AEB97E02F
:102FA0000E94300D85EC97E00E94300D80ED97E097
:102FB0000E94300D8BED97E00E94300D84EA97E07F
:102FC0000E94300D89E997E00E94300D8AE897E071
:102FD0000E94300D8FE797E00E94300D83E797E065
:102FE0000E94300D84EA97E09093980780939707AA
:102FF00089E997E0909396078093950780916507FC
:103000008F5F80936507AA8D80916D078A1710F4F2
:10301000A0936D072BE02A9FD0011124A155B84F32
:1030200011960D90BC91A02DBF83AE8316968D9105
:103030009C9117979987888716968D919C911797E1
:10304000FC01D582C4821796DC92CE9216979A8D97
:10305000929FF0011124E155F84FFD87EC878081A4
:103060008F5F80830F900FBE80916C07882349F09B
:10307000E0915C07F0915D07828D891710F40E9442
:10308000F52381E017CF80916C078111B7CFE091D4
:103090005C07F0915D07928D8A8D891708F4AECF99
:1030A000D0935D07C0935C07A9CF0F931F93CF9375
:1030B000DF93EC010FB6F8940F92892B21F4C091A5
:1030C0005C07D0915D078E010E5F1F4FC8010E9403
:1030D000A80D888D998D892B21F0CE010E960E9426
:1030E000A80D809165078F5F8093650780915C07CD
:1030F00090915D078C179D0761F5B8018FE797E008
:103100000E94450D80917E078F5F80937E070F9010
:103110000FBE80915C0790915D078C179D0739F079
:103120008B8D9C8D0E94210DCE010E94210D8091DE
:103130006C07882349F080915C0790915D078C179C
:103140009D0711F40E94F523DF91CF911F910F91FC
:103150000895809172078150809372070E943616FD
:10316000D6CF0F931F93CF93DF93EC0180915C0731
:1031700090915D078C179D0709F455C0209709F4BD
:1031800052C00FB6F8940F928C859D858357974057
:1031900009F047C0888D998DE7E08A389E0709F4C9
:1031A00040C0892BF1F58E010E5F1F4FC8010E94B0
:1031B000A80DAA8D80916D078A1710F4A0936D0752
:1031C0002BE02A9FD0011124A155B84F11960D90E4
:1031D000BC91A02DBF83AE8316968D919C911797BD
:1031E0009987888716968D919C911797FC01158376
:1031F000048317961C930E9316979A8D929FF00155
:103200001124E155F84FFD87EC8780818F5F808323
:10321000E0915C07F0915D07828D981710F00E9495
:10322000F5230F900FBEDF91CF911F910F9108955D
:10323000EF92FF921F93CF93DF93EC018C859D85D6
:103240008357974009F05EC0888D998D27E08A38B2
:10325000920709F457C0892B09F054C080915E078A
:10326000811149C0E0915C07F0915D079A8D828DD4
:1032700010E0981720F081E08093670711E07E014D
:1032800082E0E80EF11CC7010E94A80DAA8D809172
:103290006D078A1710F4A0936D078BE08A9FD00109
:1032A0001124A155B84F11960D90BC91A02DBF834C
:1032B000AE8316962D913C911797398728871696DD
:1032C000ED91FC911797F582E4821796FC92EE92AD
:1032D0001697EA8DE89FF0011124E155F84FFD871C
:1032E000EC8780818F5F8083812FDF91CF911F9149
:1032F000FF90EF900895BE01625F7F4F8AE897E0EC
:103300000E94450D10E0F0CFEF92FF920F938FE5F2
:10331000E82E87E0F82E00E030E020E045E550E0C0
:1033200061E571E08EEF96E10E942A178130C1F4C9
:10333000F8944FEF5FEFBA01409361075093620733
:10334000609363077093640780936C0710926E0715
:1033500010926F0710927007109271070E94BF239E
:10336000809169000F91FF90EF900895F89410926A
:103370006C070C94F42380915E078F5F80935E0747
:1033800008950FB6F8940F9260916E0770916F07D1
:1033900080917007909171070F900FBE0895609112
:1033A0006E0770916F078091700790917107089573
:1033B000809172070895009721F480915C079091A5
:1033C0005D074D960895CF92DF92EF92FF920F9393
:1033D0001F93CF93DF9380915E07811105C1C09049
:1033E0006E07D0906F07E0907007F09071078FEF35
:1033F000C81AD80AE80AF80AC0926E07D0926F0776
:10340000E0927007F0927107C114D104E104F10455
:10341000B9F4809197079091980720919507309182
:103420009607309398072093970790939607809379
:103430009507809166078F5F809366070E94361616
:103440008091610790916207A0916307B091640732
:10345000C816D906EA06FB06E8F480E0E0915C07AE
:10346000F0915D07E28DDBE0ED9FF0011124E15565
:10347000F84F9081923008F081E0909167079111A8
:1034800081E0DF91CF911F910F91FF90EF90DF903E
:10349000CF90089580E04BE0E0919707F091980776
:1034A000908191110CC04FEF5FEFBA01409361071B
:1034B000509362076093630770936407CFCFE091E6
:1034C0009707F09198070780F085E02D0084F1853B
:1034D000E02D0281138124813581C016D106E206D8
:1034E000F30648F400936107109362072093630783
:1034F00030936407B3CFA485B58526813781608575
:103500007185E9017F836E83C085D1853D832C83DE
:103510009F012E5F3F4F11966D917C91129762171C
:10352000730721F41296DC93CE93119715861486B7
:103530009C9191509C93A08DB18D1097F1F0628970
:10354000738904891589EB011F830E83C489D5898A
:103550007D836C8311960D911C911297BF01625F60
:103560007F4F0617170721F41296DC93CE9311971D
:10357000118E108E9C9191509C93A28D90916D070D
:103580009A1710F4A0936D074A9FD0011124A155FA
:10359000B84F11960D90BC91A02DB783A6831696B7
:1035A0006D917C911797718760871696CD91DC910C
:1035B00017973D832C8317963C932E931697228D55
:1035C000249FD0011124A155B84FB587A4879C91A1
:1035D0009F5F9C93E0915C07F0915D07928D2917A6
:1035E00008F45ACF81E058CF80916807909169071D
:1035F000A0916A07B0916B070196A11DB11D809340
:10360000680790936907A0936A07B0936B0780E0FF
:1036100038CFCF92DF92EF92FF92CF93DF930FB626
:10362000F8940F9280915E07815080935E0780919D
:103630005E07882351F080E00F900FBEDF91CF919D
:10364000FF90EF90DF90CF900895809172078823CC
:1036500091F3C0909107D0909207F0E0E0E03BE05A
:1036600041E080918A0781112EC0EF2B11F00E945A
:103670003616C0906807D0906907E0906A07F0900E
:103680006B07C114D104E104F104A1F0C1E00E9470
:10369000E3198111C0936707D1E0CD1AD108E10881
:1036A000F108A9F7109268071092690710926A074B
:1036B00010926B0780916707882309F4BCCF0E94A2
:1036C000F52381E0B9CFD6011896ED91FC91A08D3C
:1036D000B18D6289738984899589EB019F838E837B
:1036E00084899589EC017D836C83BF01625F7F4F84
:1036F0001196ED90FC901297E616F70621F41296BB
:103700009C938E931197118E108E8C9181508C9377
:10371000A485B5858681978160857185EC017F835D
:103720006E8360857185EB019D838C83CF0102964A
:103730001196ED90FC901297E816F90621F4129676
:103740007C936E931197158614862C9121502C939F
:10375000A28D20916D072A1710F4A0936D073A9F50
:10376000D0011124A155B84F11960D90BC91A02DF8
:10377000B783A68316966D917C91179771876087A2
:1037800016966D917C911797EB019D838C8317960C
:103790009C938E931697928D939FD0011124A155DF
:1037A000B84FB587A4878C918F5F8C93A0915C07ED
:1037B000B0915D075A968C91981708F452CF4093B8
:1037C00067074FCF8F929F92AF92BF92CF92DF92B7
:1037D000EF92FF920F931F93CF93DF93EC016A0157
:1037E0007B010E94BB1980906E0790906F07A0909C
:1037F0007007B0907107088119812A813B81C00E42
:10380000D11EE21EF31E80169106A206B30678F5BD
:10381000C016D106E206F30630F411E08C149D04C4
:10382000AE04BF0408F010E0C882D982EA82FB82AD
:10383000112349F0C701B601681979098A099B0962
:1038400040E00E9455160E94091B811102C00E948F
:10385000F523812FDF91CF911F910F91FF90EF9072
:10386000DF90CF90BF90AF909F908F900895C0163B
:10387000D106E206F30688F611E0D6CFCF92DF92AA
:10388000EF92FF926B017C01C114D104E104F104B9
:1038900039F40E94F523FF90EF90DF90CF900895C8
:1038A0000E94BB1940E0C701B6010E9455160E9454
:1038B000091B882371F3EFCFCF92DF92EF92FF9233
:1038C0006B017C010E94BB19809168079091690788
:1038D000A0916A07B0916B07C80ED91EEA1EFB1EA5
:1038E000C0926807D0926907E0926A07F0926B076E
:1038F000FF90EF90DF90CF900C94091B80915E07B2
:10390000882321F081E0809367070895109267076C
:1039100020916D078BE0422F50E0849FF001859F3E
:10392000F00D1124E155F84F9081992349F1A181BF
:10393000B28114960D90BC91A02DB283A183289FD3
:10394000C00111248E54984FA817B90729F4149672
:103950008D919C91928381838BE0849FF001859F60
:10396000F00D1124E155F84F0180F281E02D8085A2
:10397000918590935D0780935C0720936D07089570
:103980002150C9CF0F931F93CF93DF93EC010FB654
:10399000F8940F92892B21F4C0915C07D0915D07B8
:1039A0008E010E5F1F4FC8010E94A80D888D998D52
:1039B000892B21F0CE010E960E94A80DB80183E755
:1039C00097E00E94450D89A5813009F419A60F9052
:1039D0000FBE80916C07882339F00FB6F8940F92D0
:1039E0000E9436160F900FBE80915C0790915D0784
:1039F0008C179D0731F480916C07882339F00E9461
:103A0000F523DF91CF911F910F9108959091730746
:103A100080917207981305C010925D0710925C07A1
:103A2000F0CFDF91CF911F910F910C947E1CCF921C
:103A3000DF92EF92FF926A017B0160915C077091C7
:103A40005D07625F7F4F0E94650D41E0C701B601CF
:103A5000FF90EF90DF90CF900C9455160F931F932B
:103A6000CF93DF93FC01A0915C07B0915D07706874
:103A70001E964D935D936D937C935197A181B28176
:103A8000C0915C07D0915D07BB8BAA8BC0915C078E
:103A9000D0915D0716968D919C9117979D8B8C8B7D
:103AA00080915C0790915D071696CD91DC911797F8
:103AB0000E969D838C8380915C0790915D070E9696
:103AC00017969C938E931697A0915C07B0915D0713
:103AD0005996FC93EE93589780818F5F808341E0E5
:103AE000C901B801DF91CF911F910F910C94551628
:103AF000CF93DF93DC011796ED91FC910084F18563
:103B0000E02DA08DB18D8289938924893589EC01BE
:103B10003F832E83C489D5899D838C83CF010E96E4
:103B200011962D913C9112972817390721F412967E
:103B3000DC93CE931197118E108E2C9121502C93E3
:103B400020915E07211157C0A485B5858681978194
:103B500020853185EC013F832E83C085D1859D83EF
:103B60008C83CF01029611962D913C9112972817C4
:103B7000390721F41296DC93CE931197158614869B
:103B80002C9121502C93C28D20916D072C1710F48D
:103B9000C0936D072BE02C9FE0011124C155D84F35
:103BA0000980DA81C02DD783C6834E815F8151871A
:103BB0004087AE81BF8115969C938E9314979F8307
:103BC0008E83A28DA29FD0011124A155B84FB58735
:103BD000A4878C918F5F8C93A0915C07B0915D0757
:103BE000928D5A968C91891730F581E08093670702
:103BF000DF91CF910895A0918B07B0918C07B38B83
:103C0000A28B16962D913C911797358B248B169687
:103C1000CD91DC9117979D838C8317969C938E93FF
:103C200016978AE897E0918F808F80918A078F5F3F
:103C300080938A07D1CF80E0DBCFCF93DF93DC0185
:103C400070684D935D936D937C9313971896ED91E7
:103C5000FC9119971A964D915C911B9714962D9192
:103C60003C91159716968D919C911797E9019F832A
:103C70008E8316968D919C911797EC013D832C8332
:103C8000EA0129813A812A173B0711F49A83898333
:103C90001B961C921E921A97DA018C9181508C937C
:103CA000A485B5858681978120853185EC013F8388
:103CB0002E83C085D1859D838C83CF01029611967A
:103CC0002D913C9112972817390721F41296DC9315
:103CD000CE931197158614862C9121502C93C28D6A
:103CE00020916D072C1710F4C0936D074BE04C9F8B
:103CF000E0011124C155D84F0980DA81C02DD78346
:103D0000C6832E813F81318720872E813F81D90153
:103D100015969C938E9314979F838E83928D949F78
:103D2000D0011124A155B84FB587A4878C918F5F1E
:103D30008C93E0915C07F0915D07828D891718F4F0
:103D400081E080936707DF91CF9108950FB6F894D3
:103D50000F9220916607FC01208340916E075091DD
:103D60006F0760917007709171074183528363837D
:103D700074830F900FBE089520916607FC01208385
:103D800040916E0750916F076091700770917107B5
:103D900041835283638374830895CF92DF92EF92BD
:103DA000FF920F931F93CF93DF93FB010FB6F8940D
:103DB0000F9200916E0710916F072091700730915C
:103DC000710740815181628173814F3FAFEF5A0784
:103DD0006A077A0791F1EC01C980DA80EB80FC80F8
:103DE000A0916607B881BA17A9F00C151D052E051C
:103DF0003F0580F0108211821282138281E00F90C1
:103E00000FBEDF91CF911F910F91FF90EF90DF9048
:103E1000CF9008950C191D092E093F0904171507A5
:103E20002607370738F7401B510B620B730B408393
:103E30005183628373830E94BC1E80E0E0CF81E0E7
:103E400080936707089580915C0790915D070895BE
:103E5000E0915C07F0915D0746855785608971891F
:103E6000A0915C07B0915D07E0915C07F0915D0760
:103E70005A962C9185E090E0A0E0B0E0821B910979
:103E8000A109B10986879787A08BB18BCB01BA01B5
:103E900008958F929F92AF92BF92CF92DF92EF924E
:103EA000FF920F931F93CF93DF93C82FF62ECA0173
:103EB000B9010FB6F8940F92E0915C07F0915D079D
:103EC000D0E08E01000F111F000F111FE00FF11F36
:103ED00085A096A0A7A0B0A489288A288B2891F451
:103EE000E0915C07F0915D07EC0FFD1F21E021A739
:103EF000611571058105910529F041E00E94551673
:103F00000E94F5230F900FBE0FB6F8940F92E09128
:103F10005C07F0915D07E00FF11F65A176A187A115
:103F200090A5611571058105910569F020915C07E7
:103F300030915D07020F131FFF20D9F0F80115A281
:103F400016A217A210A620915C0730915D07C20F40
:103F5000D31F19A60F900FBEDF91CF911F910F9124
:103F6000FF90EF90DF90CF90BF90AF909F908F9099
:103F700008956B017C01F1E0CF1AD108E108F10846
:103F8000F801C5A2D6A2E7A2F0A6DDCF4F925F92BC
:103F90006F927F92AF92BF92CF92DF92EF92FF9299
:103FA0000F931F93CF93DF93280139010FB6F89435
:103FB0000F92E0915C07F0915D07C82FD0E0EC0F05
:103FC000FD1F81A5823079F180915C0790915D079A
:103FD000FE01EE0FFF1FEE0FFF1FE80FF91F85A177
:103FE00096A1A7A1B0A540955095609570958423A2
:103FF0009523A623B72385A396A3A7A3B0A7E091F3
:104000005C07F0915D07EC0FFD1F81E081A7A11413
:10401000B104C104D10439F041E0C601B5010E94E8
:1040200055160E94F5230F900FBE0FB6F8940F920D
:10403000E114F104A1F0E0915C07F0915D07CE017D
:10404000880F991F880F991FE80FF91F85A196A166
:10405000A7A1B0A5F70180839183A283B383E091E8
:104060005C07F0915D07EC0FFD1F81A58230A1F583
:10407000E0915C07F0915D07CE01880F991F880FD2
:10408000991FE80FF91F85A196A1A7A1B0A540949B
:1040900050946094709484219521A621B72185A322
:1040A00096A3A7A3B0A781E020915C0730915D079C
:1040B000C20FD31F19A60F900FBEDF91CF911F9192
:1040C0000F91FF90EF90DF90CF90BF90AF907F90D7
:1040D0006F905F904F90089580E0E6CF8F929F920F
:1040E000AF92BF92CF92DF92EF92FF920F931F9306
:1040F000CF93DF93DC010FB6F8940F9270E0E114D8
:10410000F10481F0FB01EE0FFF1FEE0FFF1FE80F20
:10411000F91F85A096A0A7A0B0A4E7018882998284
:10412000AA82BB82FD01E60FF71F81A592E091A74D
:104130000230110509F440C0B0F40130110541F11D
:10414000813009F44DC081E00F900FBEDF91CF9117
:104150001F910F91FF90EF90DF90CF90BF90AF90A5
:104160009F908F9008950330110531F004301105B0
:1041700039F7823009F497C0660F771F660F771FF3
:10418000FD01E60FF71F25A336A347A350A7D8CFFD
:10419000660F771F660F771FFD01E60FF71FC5A09B
:1041A000D6A0E7A0F0A4C22AD32AE42AF52AC5A201
:1041B000D6A2E7A2F0A6C4CF660F771F660F771FBF
:1041C000FD01E60FF71F45A156A167A170A54F5F3E
:1041D0005F4F6F4F7F4F45A356A367A370A7B0CF24
:1041E0001C96ED91FC911D9716968D919C911797B9
:1041F00018962D913C911997EC013F832E831896C8
:10420000CD91DC9119979D838C839D012E5F3F4F4B
:10421000818192818217930711F4D283C1831D9605
:104220001C921E921C978081815080835A96CC915B
:104230005A9780916D078C1710F4C0936D074BE06F
:104240004C9FE0011124C155D84F0980DA81C02D5F
:104250001796DC93CE9316978E819F8119969C9327
:104260008E9318978E819F81FC01358324833F8331
:104270002E835A969C915A97949FF0011124E155F0
:10428000F84F1D96FC93EE931C9780818F5F80837F
:10429000E0915C07F0915D07828D891708F053CF9C
:1042A0000E94F52350CF80E04FCF8F929F92AF9224
:1042B000BF92CF92DF92EF92FF920F931F93CF9313
:1042C000DF93DC0170E0E114F10481F0FB01EE0FFB
:1042D000FF1FEE0FFF1FE80FF91F85A096A0A7A0F4
:1042E000B0A4E70188829982AA82BB82FD01E60F11
:1042F000F71F81A592E091A702301105F1F1A0F41A
:104300000130110531F1813009F44BC081E0DF91BA
:10431000CF911F910F91FF90EF90DF90CF90BF90C2
:10432000AF909F908F9008950330110531F00430C5
:10433000110549F7823009F4C5C0660F771F660F73
:10434000771FFD01E60FF71F25A336A347A350A74C
:10435000DACF660F771F660F771FFD01E60FF71F95
:1043600085A096A0A7A0B0A4822A932AA42AB52A41
:1043700085A296A2A7A2B0A6C6CF660F771F660F2A
:10438000771FFD01E60FF71F45A156A167A170A594
:104390004F5F5F4F6F4F7F4F45A356A367A370A733
:1043A000B2CF80915E0781116BC01C96ED91FC919C
:1043B0001D9716968D919C91179718962D913C916B
:1043C0001997EC013F832E831896CD91DC911997B4
:1043D0009D838C839D012E5F3F4F81819281821747
:1043E000930711F4D283C1831D961C921E921C97D1
:1043F0008081815080835A96CC915A9780916D0725
:104400008C1710F4C0936D078BE08C9FE001112492
:10441000C155D84F0980DA81C02D1796DC93CE9311
:1044200016974E815F8119965C934E931897EE8193
:10443000FF81358324833F832E835A96EC915A97CC
:10444000E89FF0011124E155F84F1D96FC93EE937F
:104450001C9780818F5F8083E0915C07F0915D07FE
:104460005A969C91828D891708F050CFC114D104BF
:1044700019F081E0F601808381E08093670747CFE0
:10448000E0918B07F0918C075396FC93EE93529733
:104490008681978155969C938E935497C681D78138
:1044A000CD010E969D838C83978386838AE897E05F
:1044B00059969C938E93589780918A078F5F80932B
:1044C0008A07CACF80E023CF0F931F93CF93DF9348
:1044D000FC01A62FB0E0EC01CA0FDB1F89A592E01A
:1044E00099A7AA0FBB1FAA0FBB1FAE0FBF1F9596A0
:1044F0000D911D912D913C9198970F5F1F4F2F4F5C
:104500003F4F95960D931D932D933C939897813033
:1045100009F05EC080915E0781115FC0A485B585FA
:104520008681978120853185EC013F832E83C0856C
:10453000D1859D838C83CF01029611962D913C915C
:1045400012972817390721F41296DC93CE9311970E
:10455000158614862C9121502C93C28D20916D07C5
:104560002C1710F4C0936D072BE02C9FE001112451
:10457000C155D84F0980DA81C02DD783C6836E819B
:104580007F8171876087AE81BF8115969C938E93E2
:1045900014979F838E83A28DA29FD0011124A155D1
:1045A000B84FB587A4878C918F5F8C93A0915C07DF
:1045B000B0915D07928D5A968C91891748F44115F8
:1045C000510519F081E0FA01808381E0809367074B
:1045D000DF91CF911F910F910895A0918B07B0911A
:1045E0008C07B38BA28B16968D919C911797958B08
:1045F000848B1696CD91DC911797CF010E969D83F3
:104600008C8317969C938E9316978AE897E0918FE8
:10461000808F80918A078F5F80938A07C7CF00972A
:1046200021F480915C0790915D070FB6F8940F928A
:10463000FC01E60FF11D81A5823029F411A681E06D
:104640000F900FBE089580E0FBCFCF92DF92EF92E4
:10465000FF92009721F480915C0790915D070FB65F
:10466000F8940F9274E0679FF0011124E80FF91F8E
:1046700065A176A187A190A5C5A0D6A0E7A0F0A4CA
:104680002095309540955095C222D322E422F52200
:10469000C5A2D6A2E7A2F0A60F900FBEFF90EF90A2
:1046A000DF90CF90089531E1FC013083319722E211
:1046B00020833197A3E3A083319760833197708380
:1046C00031971082319760E860833197108231977B
:1046D00062E06083319763E06083319764E06083D8
:1046E000319765E06083319766E06083319767E0DA
:1046F0006083319768E06083319769E06083319728
:1047000060E1608331973083319732E130833197B4
:1047100033E13083319734E13083319735E13083B1
:10472000319736E13083319737E13083319738E183
:104730003083319739E13083319730E230833197DC
:1047400031E2308331972083319723E22083319700
:10475000408331975083319726E22083319727E2B7
:104760002083319728E22083319729E220833197F3
:1047700020E32083319721E32083869708951BBC93
:1047800089EF8ABD8BE08EBD89B7806189BFA0911A
:104790005C07B0915D07CD91CDBFDD91DEBFFF918C
:1047A000EF91DF91CF91BF91AF919F918F917F91C9
:1047B0006F915F914F913F912F911F910F91FF90BA
:1047C000EF90DF90CF90BF90AF909F908F907F90B1
:1047D0006F905F904F903F902F901F900F900FBE63
:1047E0000F90089581E0089508950F920FB6F89400
:1047F0000F921F9211242F923F924F925F926F92CD
:104800007F928F929F92AF92BF92CF92DF92EF9260
:10481000FF920F931F932F933F934F935F936F9349
:104820007F938F939F93AF93BF93CF93DF93EF9338
:10483000FF93A0915C07B0915D070DB60D920EB687
:104840000D920E947E1CA0915C07B0915D07CD91F6
:10485000CDBFDD91DEBFFF91EF91DF91CF91BF9191
:10486000AF919F918F917F916F915F914F913F9108
:104870002F911F910F91FF90EF90DF90CF90BF90FD
:10488000AF909F908F907F906F905F904F903F90F0
:104890002F901F900F900FBE0F9008950F920FB69C
:1048A000F8940F921F9211242F923F924F925F9291
:1048B0006F927F928F929F92AF92BF92CF92DF9230
:1048C000EF92FF920F931F932F933F934F935F931A
:1048D0006F937F938F939F93AF93BF93CF93DF9308
:1048E000EF93FF93A0915C07B0915D070DB60D9219
:1048F0000EB60D920E94E31981110E947E1CA091B8
:104900005C07B0915D07CD91CDBFDD91DEBFFF911A
:10491000EF91DF91CF91BF91AF919F918F917F9157
:104920006F915F914F913F912F911F910F91FF9048
:10493000EF90DF90CF90BF90AF909F908F907F903F
:104940006F905F904F903F902F901F900F900FBEF1
:104950000F9008950E944E241895CF93DF93CDB702
:10496000DEB7A9970FB6F894DEBF0FBECDBF86E6BF
:104970008AA340E061E083E00E94050287E690E0C0
:104980000E94F40482E00E948C0581E00E948C0564
:1049900080E00E948C050E94E4070E941F0744E00B
:1049A00060E081E00E94420342E060E283E00E9416
:1049B000050242E060E281E00E94050240E060E220
:1049C00081E00E94390242E060E481E00E94050239
:1049D00041E060E481E00E94390240E062E080E072
:1049E0000E94050242E061E082E00E94050242E08E
:1049F00060E883E00E94050243E068E670E082E040
:104A00000E946B030E9449008FEB90E00E94820796
:104A10002FEF4BE752E9215040405040E1F700C0F2
:104A200000000E94920793E0292E512C83E08DA371
:104A30001CA2912C5E0195E1A90EB11C8E010F5FA5
:104A40001F4F44244394A6E6AAA3CE0183960E9456
:104A500084010E9474018CEF97E00E9475008091A0
:104A6000E807833439F480E38093E80710925F010C
:104A700083E0282E8091E807863469F42A9480E345
:104A80008093E80710925F01211005C08AEC90E046
:104A90000E948207FFCF8091E807803539F480E3D8
:104AA0008093E80710925F01552453948091E807A2
:104AB0008E3431F480E38093E80710925F01512C2B
:104AC0008091E807813309F0EAC080E00E949E05EA
:104AD00080E38093E80710925F0140925801CE0175
:104AE00082960E940C08F1E09F120BC08AA18133CC
:104AF00009F04BC25F1230C280E00E949E055092C6
:104B000058018AA1823509F016C3911014C387EFAA
:104B100090E00E94820760E080E40E948E078FEFA1
:104B200097EAA1E681509040A040E1F700C0000064
:104B30008DE2898366246394CE0181960E940C08DD
:104B400089A19FEB980F9430A0F4FF24F394F60C06
:104B5000600E712E711CF30180830E948007FFEFAD
:104B60002DE242E2F15020404040E1F700C0000059
:104B70006F2C89A1823501F70E9492075FEF83EDC8
:104B800090E3515080409040E1F700C0000086E083
:104B900091E00E94820760E080E40E948E07AFEF00
:104BA000B7EAE1E6A150B040E040E1F700C0000004
:104BB000CE0181960E940C0889A19FEC980F993034
:104BC000A0F4FF24F394F60C600E712E711CD30137
:104BD0008C930E948007BFEFEDE2F2E2B150E0401B
:104BE000F040E1F700C000006F2C89A1823501F789
:104BF000F801E60DF11D8BE2808363940E94920719
:104C00002FEF43ED50E3215040405040E1F700C00A
:104C1000000085E191E00E9482078FEF97EAA1E60C
:104C200081509040A040E1F700C000000E94920730
:104C3000BFEFE3EDF0E3B150E040F040E1F700C03A
:104C40000000812CD12CC12CF12CE12C712CBE0147
:104C5000615E7F4FC6010E941E058F8D98A18D3227
:104C6000910509F00EC2811002C0F12CE12CF50172
:104C7000EE0DFF1D80834FEFE41AF40A882483941D
:104C80008B9709F002C2D801F501882483946E1431
:104C90007F0409F42BC2812CF12CE12CF6C1823364
:104CA00059F481E00E949E0580E38093E80710920A
:104CB0005F014092590113CF833359F482E00E947F
:104CC0009E0580E38093E80710925F0140925A01AD
:104CD00006CF843359F480E00E94B00580E38093CE
:104CE000E80710925F0110925801F9CE853359F40C
:104CF00081E00E94B00580E38093E80710925F0195
:104D000010925901ECCE863359F482E00E94B0052E
:104D100080E38093E80710925F0110925A01DFCE82
:104D2000873569F441E061E082E00E94390280E366
:104D30008093E80710925F0140925D01D0CE8934E4
:104D400069F440E061E082E00E94390280E38093F0
:104D5000E80710925F0110925D01C1CE873379F4AC
:104D6000BCA1B111BCCE0E94F10180E38093E807A1
:104D700010925F0140925B01E1E0ECA3B0CE88337A
:104D800079F4FCA1F13009F0AACE0E94FB0180E386
:104D90008093E80710925F0110925B011CA29FCEE6
:104DA0008A3241F40E94940180E38093E8071092D4
:104DB0005F0195CE8F3219F40E94CC01F5CF843477
:104DC00009F09DC08BA1853409F089CE4DB75EB73F
:104DD0005FA34EA380915F0190E09C0121503109B7
:104DE000ADB7BEB7A81BB90B0FB6F894BEBF0FBEC8
:104DF000ADBFEDB7FEB731963F018DE211968C93B2
:104E000033243394832D90E0339482179307A4F1D5
:104E1000260D371D8BE2F901808380E38093E8073C
:104E200010925F01F12CE12CD12CC12CB501C701EE
:104E30000E941E058FE39CE90197F1F700C0000076
:104E40008D899E898D32910501F5D11003C0C12C49
:104E5000E8A6F9A6F801EC0DF11D8083C394DD24CA
:104E6000D3948B97A9F4D301F801DD24D3943C1497
:104E700019F1D12CC12C0CC0F301E80FF91F885196
:104E8000984FDC018C918083BDCFA1E0DA1611F33D
:104E90004FEFE41AF40A5EEFE51653E0F50631F63B
:104EA0008EA19FA10FB6F8949EBF0FBE8DBF17CEE7
:104EB00091918D919813D12C8E2F801B8315C0F367
:104EC000B1E0C32CDB12E4CFC8A4D9A447012FEF73
:104ED000821A920A0DC06FEFC6010E941605EFE319
:104EE000FCE93197F1F700C00000FFEFCF1ADF0AAD
:104EF000C814D90480F3C32CD12C912CC9CF8D3286
:104F000009F0EDCD8BA18B3209F0E9CDF12C1FC05A
:104F100080915601909157018C3FA3E09A07B0F41D
:104F2000EF2DF0E0E851F84F60810E941605EFE3A5
:104F3000FCE93197F1F700C0000080915601909193
:104F4000570101969093570180935601F3948091F5
:104F50005F01F816E8F228CF87ED90E00E94820703
:104F60002FEF47EA51E6215040405040E1F700C0A2
:104F700000000E9492078FEF93ECA9E081509040CF
:104F8000A040E1F700C00000BCCD823349F4B1E09D
:104F90005B12E2CF81E00E949E0550925901B1CD93
:104FA000833349F4E1E05E12D7CF82E00E949E0590
:104FB00050925A01A6CD843349F4F1E05F12CCCF70
:104FC00080E00E94B005109258019BCD853349F4D2
:104FD00021E05212C1CF81E00E94B0051092590128
:104FE00090CD863349F441E05412B6CF82E00E945E
:104FF000B00510925A0185CD873359F451E055120E
:10500000ABCF41E061E082E00E94390250925D0145
:1050100078CD883359F481E058129ECF40E061E0AA
:1050200082E00E94390210925D016BCD8933A9F4B0
:1050300091E0591291CF0E94940185EE90E00E9478
:105040008207AFEFB7EAE1E6A150B040E040E1F7F8
:1050500000C000000E94920754CD803309F051CD6A
:10506000F1E05F1279CF0E94CC018EEE90E00E94B9
:1050700082072FEF47EA51E6215040405040E1F7C8
:10508000E7CF21E0821609F4F2CD4FEFC41AD40A1B
:105090005FE0C516D10409F0DACD82E491E00E9408
:1050A00082074FEF57EA81E6415050408040E1F7D8
:1050B00000C000000E9492079FEFA3EDB0E3915063
:1050C000A040B040E1F700C00000EDA1E150EDA329
:1050D000E11131C080E00E949E058AEC90E00E94C0
:1050E0008207FFCF91918D919813812CCF018A195E
:1050F0009B098E159F05B0F351E08512C6CF82E261
:1051000091E00E9482078FEF97EAA1E681509040DC
:10511000A040E1F700C000000E949207BFEFE3EC5F
:10512000F9E0B150E040F040E1F700C00000992400
:10513000939423E02DA38AA18534E1F481E09812B1
:1051400019C083E391E00E9482079FEFA7EAB1E6CE
:105150009150A040B040E1F700C000000E949207CB
:10516000EFEFF3ED20E3E150F0402040E1F700C025
:105170000000912C0E94A90066CCA1E21A2EAA1B65
:10518000BB1BFD010DC0AA1FBB1FEE1FFF1FA217F7
:10519000B307E407F50720F0A21BB30BE40BF50BF4
:1051A000661F771F881F991F1A9469F7609570957D
:1051B000809590959B01AC01BD01CF010895A29F00
:1051C000B001B39FC001A39F700D811D1124911DDB
:1051D000B29F700D811D1124911D0895FB01DC010A
:1051E00002C001900D9241505040D8F70895F894B4
:0251F000FFCFEF
:1051F200010301F401FA0088130439003600330078
:1052020030003B003800350032003A0037003400ED
:1052120031004C454430204F4E004C454431204F24
:105222004E004C454432204F4E00444F4F52204FC7
:1052320050454E4544004C414D50204F4E0041498F
:105242005220434F4E444954494F4E204F4E005333
:105252004D41525420484F4D4500504C4541534515
:10526200205245534554004E4F205045524D49530C
:1052720053494F4E004C616D7020696E63004C6162
:105282006D702064656300454E5445522055534568
:10529200524E414D4500454E5445522050415353C4
:1052A200574F524400434845434B494E47202E2E08
:1052B2002E005375636365737366756C206C6F673C
:1052C200696E004C4F4747494E47204F55542E2E8A
:1052D2002E005349474E20494E204641494C4544F1
:0652E2000049444C4500A8
:00000001FF
